S01A00004C6F636B65725F53797374656D5F50726F6A2E73726563CC
S11300000C942A000C9447000C9447000C9447006D
S11300100C9447000C9447000C9447000C94470040
S11300200C9447000C9447000C940F050C94E804BE
S11300300C9447000C9447000C9447000C94470020
S11300400C9447000C9447000C9447000C94470010
S11300500C94470011241FBECFE5D8E0DEBFCDBF0E
S113006011E0A0E6B0E0E0E7FAE002C005900D92EE
S1130070A234B107D9F721E0A2E4B1E001C01D9296
S1130080AB34B207E1F70E94BE020C9436050C941F
S11300900000E199FECF9FBB8EBB8CB381608CBB0B
S11300A08DB30895E199FECF9FBB8EBB6DBB8CB31E
S11300B084608CBB8CB382608CBB089580EF81BB61
S11300C08FE082BB08958FEF82BB20E038C032B34B
S11300D0422F50E0BA016C5F7F4F81E090E0062E22
S11300E002C0880F991F0A94E2F7E82FE0953E2397
S11300F032BB809905C0FA01E659FF4F808108950B
S1130100819905C0FB01E659FF4F808108958299CA
S113011005C0FA01EE58FF4F80810895839905C008
S1130120FA01EA58FF4F80810895EFE9FFE0319723
S1130130F1F700C0000092B3892B82BB2F5F2430FB
S113014030F280E0089598B3977F98BB882324F415
S113015098B3906898BB03C098B39F7798BB86FF09
S113016004C098B3906498BB03C098B39F7B98BBBA
S113017085FF04C098B3906298BB03C098B39F7D79
S113018098BB84FF04C098B3906198BB03C098B334
S11301909F7E98BB98B3946098BBEFE9FFE03197DA
S11301A0F1F700C0000098B39B7F98BBEFE9FFE034
S11301B03197F1F700C0000083FF04C098B3906842
S11301C098BB03C098B39F7798BB82FF04C098B3D1
S11301D0906498BB03C098B39F7B98BB81FF04C015
S11301E098B3906298BB03C098B39F7D98BB80FF7F
S11301F004C088B3806188BB03C088B38F7E88BB8A
S113020088B3846088BB8FE99FE00197F1F700C051
S1130210000088B38B7F88BBEFE9FFE03197F1F7EB
S113022000C00000089587B38C6F87BB83E00E94F1
S1130230A3008FE79EE30197F1F700C0000083E07D
S11302400E94A3008FE79EE30197F1F700C000002E
S113025083E00E94A3008FE79EE30197F1F700C0BB
S1130260000082E00E94A30088E20E94A30088E0CC
S11302700E94A30081E00E94A30086E00E94A300E4
S11302808CE00E94A3009FEF29EF80E09150204072
S11302908040E1F700C00000089598B3986098BBCF
S11302A0882324F498B3906898BB03C098B39F77CD
S11302B098BB86FF04C098B3906498BB03C098B3FE
S11302C09F7B98BB85FF04C098B3906298BB03C022
S11302D098B39F7D98BB84FF04C098B3906198BB8A
S11302E003C098B39F7E98BB98B3946098BBEFE922
S11302F0FFE03197F1F700C0000098B39B7F98BBF3
S1130300EFE9FFE03197F1F700C0000083FF04C07C
S113031098B3906898BB03C098B39F7798BB82FF4B
S113032004C098B3906498BB03C098B39F7B98BBF8
S113033081FF04C098B3906298BB03C098B39F7DBB
S113034098BB80FF04C088B3806188BB03C088B3B6
S11303508F7E88BB88B3846088BB8FE99FE0019758
S1130360F1F700C0000088B38B7F88BBEFE9FFE0A2
S11303703197F1F700C0000008950F931F93CF93B6
S11303808C01C0E003C00E944D01CF5FF801EC0F67
S1130390F11D80818111F7CFCF911F910F910895A5
S11303A08091420190914301A0914401B091450193
S11303B00196A11DB11D8093420190934301A09326
S11303C04401B0934501893F9105A105B10559F454
S11303D085B38E7F85BB1092420110924301109227
S11303E04401109245010895CF93C0E00BC060E32F
S11303F08C2F90E00E94520061E088E090E00E941F
S11304005200CF5FC43098F3CF910895EF92FF92DA
S11304100F931F93CF93DF93CDB7DEB72A970FB611
S1130420F894DEBF0FBECDBF8C018AE0E0E6F0E0B9
S1130430DE01119601900D928A95E1F780914A01AF
S1130440813071F020E059C08F2D90E0F801E80F61
S1130450F91FE0800E944900E81206C0F39401C02D
S1130460F12C23E02F1580F784E0F8121BC081E003
S11304700E94A30080E80E94A3008AE790E00E9403
S1130480BD0160E089E090E00E94520010924A01B0
S11304909FEF23ED80E3915020408040E1F700C0BE
S11304A000005FC081E00E94A30080E80E94A300D6
S11304B082E890E00E94BD0180EC0E94A30088E8DD
S11304C090E00E94BD019FEF23ED80E39150204016
S11304D08040E1F700C0000044C0822F90E0F801A2
S11304E0E80FF91F3081E1E0F0E0EC0FFD1FE80FA9
S11304F0F91F8081381303C02F5F2A3070F32A302C
S1130500B1F40E94F40181E00E94A30080E80E94FB
S1130510A30082E990E00E94BD019FEF23ED80E3F8
S1130520915020408040E1F700C000001AC081E0F3
S11305300E94A30080E80E94A30082E890E00E9449
S1130540BD0180EC0E94A30088E890E00E94BD01F8
S11305509FEF23ED80E3915020408040E1F700C0FD
S113056000002A960FB6F894DEBF0FBECDBFDF9110
S1130570CF911F910F91FF90EF900895CF93DF9348
S1130580CDB7DEB72A970FB6F894DEBF0FBECDBF46
S11305900E94130189E090E00E94490080934A017F
S11305A00E945E0084B3816084BB88E090E00E9476
S11305B04900813011F00E94F40180EC0E94A300F4
S11305C080914A01813021F0CE0101960E943F04BE
S11305D080914A01813049F7CE0101960E94F702C9
S11305E0CE0101960E940602E0CF0E94BE020F9344
S11305F01F93CF93DF938C0180914A018130D9F509
S11306000E94A30080E80E94A30080EA90E00E9478
S1130610BD0180EC0E94A300D0E02AC00E946300C8
S1130620C82F833611F40E94F502882309F1F801DA
S1130630ED0FF11D80838AE20E944D0185B3816034
S113064085BB2FEF81EE94E0215080409040E1F78C
S113065000C0000085B38E7F85BBDF5F0E9463000E
S1130660C817E1F38FE99FE00197F1F700C000009C
S1130670D430A1F655C081E00E94A30080E80E9416
S1130680A3008CE291E00E94BD0180EC0E94A300D3
S113069080EB90E00E94BD019FEF23ED80E3915039
S11306A020408040E1F700C0000081E00E94A300E8
S11306B080E80E94A30080EB90E00E94BD0180ECE2
S11306C00E94A300D0E02AC00E946300C82F833692
S11306D011F40E94F502882309F1F801ED0FF11DD0
S11306E080838AE20E944D0185B3816085BB9FEFC0
S11306F021EE84E0915020408040E1F700C00000EA
S113070085B38E7F85BBDF5F0E946300C817E1F36A
S11307108FE99FE00197F1F700C00000DA30A1F6FD
S1130720DF91CF911F910F9108950F931F93CF9352
S1130730DF9300D000D01F92CDB7DEB781E00E94D6
S1130740A3008FEB90E00E94BD0180ED91E09093B7
S11307504901809348018BEB0E94D40485B38160E6
S113076085BB0E946300182F0E9463001817E1F3F1
S113077080EC0E94A30000E02DC00E946300182FAB
S1130780833611F40E94F502882321F1E1E0F0E0C0
S1130790EC0FFD1FE00FF11D80838AE20E944D01E2
S11307A085B3816085BB2FEF81EE94E021508040BA
S11307B09040E1F700C0000085B38E7F85BB0F5FDA
S11307C00E9463001817E1F38FE99FE00197F1F7A6
S11307D000C00000053089F68D818C3561F50DC0AF
S11307E0812F90E0E1E0F0E0EC0FFD1FE80FF91F2E
S11307F060810E9452001F5F01C010E0143080F33A
S113080081E00E94A30080E80E94A30084ED90E0B0
S11308100E94BD0180EC0E94A30082EE90E00E9441
S1130820BD019FEF27EA81E6915020408040E1F727
S113083000C000001AC081E00E94A30080E80E946A
S1130840A30084ED90E00E94BD0180EC0E94A3000F
S11308508AEE90E00E94BD019FEF2FE483EC91505B
S113086020408040E1F700C000000F900F900F90EF
S11308700F900F90DF91CF911F910F9108950F93D7
S11308801F93CF938C010E946300C82F81E00E94C4
S1130890A30080E80E94A30085EF90E00E94BD01C0
S11308A080EC0E94A30083E091E00E94BD012FEF41
S11308B087EA91E6215080409040E1F700C00000B3
S11308C081E00E94A30080E80E94A30081E191E0FE
S11308D00E94BD0180EC0E94A30083E291E00E948B
S11308E0BD012FEF83ED90E3215080409040E1F76C
S11308F000C000000E946300C817E1F30E94630077
S11309008C3519F40E9495034BC00E9463008A320F
S113091071F585B3816085BB2FEF81EE94E02150A2
S113092080409040E1F700C0000085B38E7F85BB16
S113093081E00E94A30080E80E94A30082E391E08A
S11309400E94BD012FEF83ED90E321508040904041
S1130950E1F700C0000061E089E090E00E945200ED
S113096089E090E00E94490080934A0119C00E94E6
S113097063008D32A9F485B3816085BB2FEF81EECE
S113098094E0215080409040E1F700C0000085B31E
S11309908E7F85BBC8010E94F702C8010E9406022F
S11309A0CF911F910F91089593B7916093BF93B71F
S11309B0946093BF93B7906893BF93B7986093BFC5
S11309C08CBF89B7826089BF8FB780688FBF089555
S11309D01F920F920FB60F9211242F933F934F93B0
S11309E05F936F937F938F939F93AF93BF93EF9393
S11309F0FF93E0914601F09147010995FF91EF9132
S1130A00BF91AF919F918F917F916F915F914F9122
S1130A103F912F910F900FBE0F901F9018951F922A
S1130A200F920FB60F9211242F933F934F935F931E
S1130A306F937F938F939F93AF93BF93EF93FF93A2
S1130A40E0914801F09149010995FF91EF91BF911F
S1130A50AF919F918F917F916F915F914F913F9152
S1130A602F910F900FBE0F901F901895F894FFCF01
S1130A70303030303030303030303738395C343525
S1130A80362A3132332D63303D2B436F72726563E6
S1130A90740057726F6E6700547279204167616900
S1130AA06E00526573657420697320446F6E65002F
S1130AB0456E7465722050617373776F72643A0087
S1130AC0456E74657220436F6D6D616E643A0045C6
S1130AD06E7465722061206E657720706173737720
S1130AE06F726400536176652050617373776F721F
S1130AF06400446F6E652E2E21004661696C656446
S1130B002E2E2E2100446F6F72206973206F706542
S1130B106E20005072657373202A20636C6F7365B6
S1130B20002F204368616E67652050617373776F8F
S1130B307264002D206B657920746F205265736593
S1130B407400446F6F7220697320636C6F73656403
S1050B5000009F
S9030000FC
